:020000040000fa
:080000000002040000000000f2
:020000040000fa
:100400000f802000007f2200000188000000000013
:100410000a00070011000700000020000000e000b3
:10042000020032000000020000000000ba020200d8
:10043000000000000040da000000fe004440a90077
:10044000200320000000e000030032000000200034
:10045000a00188004440a8000000060020382000c9
:10046000010020001500370062004000e0804800d5
:10047000910188009001ba0062004000e0804800cd
:10048000910188009002ba0062004000e0804800bc
:100490000002eb006028e10004003a000059eb0084
:1004a0008301e900fdff3e00040037006128e10000
:1004b000010032000082eb00050007009101880076
:1004c0001001ba000200e000e7ff3a00000005005a
:1004d000910188008002780062004000e0804800be
:1004e0003559ba008301e900080032002559ba00e5
:1004f0008301e900050032000400e000f4ff32004f
:1005000015d9ba008301e900f1ff3a0000000600a6
:020000040000fa
:1000080084030000840300008403000084030000cc
:1000180084030000840300008403000084030000bc
:1000280084030000840300008403000084030000ac
:10003800840300008403000084030000840300009c
:020000040000fa
:020000040000fa
:1005100054680000652000007175000069630000e8
:100520006b200000627200006f7700006e200000f8
:10053000666f0000782000006a7500006d70000092
:1005400065640000206f00007665000072200000e6
:1005500074680000652000006c6100007a7900007a
:10056000206400006f6700002e0000005468000047
:040570006500000022
:020000040000fa
:100574003e00fa00ec004700802828002d00090006
:10058400b0587800e102b100e002b100a1032000fc
:100594008e804000602b280003000900b0587800ca
:1005a4004100b1004000b1000000eb0030079800aa
:1005b4000080eb00200798006c004700370007001c
:1005c40050079800a00320000e00400033000700ed
:1005d400400798000000eb00100798002400370043
:1005e40010002000300798000000eb00000f780096
:1005f400160037001e0090009e0040006c0047006b
:1006040000804000104178009e007800a003200084
:100614000e0040000080400010407800804f5100e0
:1006240005003a001e0090002007980010002000ea
:1006340030079800040037000080eb002007980082
:100644000000eb00300798001e0fe8004e009000f9
:100654009e0f100003003d003e0090000000e000eb
:10066400e4ff3a001e0090000000e8001007980024
:10067400de0090004e009000008050008000e800f2
:100684001e009000808f5000030034003e00900054
:100694000000e000d2ff3200ffff37000800fa003c
:1006a400200798000000eb00100798002e0090002f
:1006b400000f7800030037001e0090000000e800df
:1006c400100798001e0078001040780060479800da
:1006d4006e4090000004e0000200320010c0b3003d
:1006e400604798006e4090001e0fe8000004e00090
:1006f400f1ff3a001e0090000080fa00000006009e
:020000040000fa
:0407040000000000f1
:020000040000fa
:040708000000fe00ef
:00000001FF
